:100000000C942A000C943F000C943F000C943F0089
:100010000C943F000C943F000C943F000C943F0064
:100020000C943F000C943F000C943F000C943F0054
:100030000C943F000C943F000C943F000C943F0044
:100040000C943F000C943F000C943F000C943F0034
:100050000C943F0011241FBECFE5D8E0DEBFCDBF1A
:1000600010E0A0E6B0E0ECE6F3E002C005900D92EF
:10007000A03AB107D9F70E948B010C94B4010C94FB
:10008000000068307105E8F584309105E8F54330EB
:100090005105E8F59C01220F331F820F931FE9E3FE
:1000A000F0E0E81BF90B4115510551F4218181E085
:1000B00090E001C0880F6A95EAF7822B81831EC009
:1000C0004130510569F4818101C0440F6A95EAF716
:1000D000942F9095892381838281482B42830EC07F
:1000E000218181E090E001C0880F6A95EAF7809550
:1000F000922F9823918392818923828380E090E0DC
:10010000089582E090E0089583E090E0089581E012
:1001100090E008950F931F93CF9300E610E0C0E0A6
:10012000F801419151918F016C2F677070E08C2F15
:1001300086958695869590E00E944100CF5FC032FB
:1001400079F7CF911F910F9108958430910598F41C
:100150006F3F710519F06115710581F49C01220F43
:10016000331F820F931FE9E3F0E0E81BF90B618373
:1001700080E090E0089583E090E0089581E090E0D1
:1001800008956830710538F58430910538F54230AE
:10019000510538F59C01220F331F820F931FE9E3AD
:1001A000F0E0E81BF90B4130510541F4828101C0B8
:1001B000440F6A95EAF7482B42830AC0228181E006
:1001C00090E001C0880F6A95EAF7809582238283C8
:1001D00080E090E0089582E090E0089583E090E070
:1001E000089581E090E008958430910598F46F3F80
:1001F000710519F06115710581F49C01220F331FFF
:10020000820F931FE9E3F0E0E81BF90B628380E0C3
:1002100090E0089583E090E0089581E090E00895F3
:1002200068307105E0F484309105E0F44115510522
:10023000E1F09C01220F331F820F931FE9E3F0E0EE
:10024000E81BF90B808190E002C0959587956A952F
:10025000E2F78170FA01808380E090E0089582E007
:1002600090E0089583E090E0089584E090E00895A0
:10027000672BC1F4282F2F702430B8F4E9E3F0E0A5
:1002800083E0289FE019F1091124318181E090E099
:1002900001C0880F2A95EAF780958323818380E047
:1002A00090E0089584E090E0089581E090E0089562
:1002B000982F9F70943030F56330710530F5E9E385
:1002C000F0E083E0989FE019F109112461157105B0
:1002D00061F061307105E1F4828101C0660F9A9589
:1002E000EAF760956823628313C0428121E030E021
:1002F000B90102C0660F771F9A95E2F7CB01842BF4
:10030000828306C081E090E0089583E090E0089544
:1003100080E090E0089561E070E081E090E00E946C
:10032000380141E050E061E070E080E090E00E9440
:10033000C1002FEF84E39CE0215080409040E1F722
:1003400000C0000040E050E061E070E080E090E03C
:100350000E94C1002FEF84E39CE021508040904038
:0C036000E1F700C00000DDCFF894FFCFF3
:10036C00020002000200000000000000000000007B
:10037C000000000000000000000000000000000071
:10038C000000000000000000000000000000000061
:10039C000000000000000000000000000000000051
:00000001FF
